:100000000C942A000C9447000C9447000C94470071
:100010000C9447000C9447000C9447000C94470044
:100020000C9447000C9447000C9447000C94470034
:100030000C9447000C9447000C9447000C94470024
:100040000C9447000C9447000C9447000C94470014
:100050000C94470011241FBECFE5D4E0DEBFCDBF16
:1000600010E0A0E6B0E0E8E1F6E002C005900D92F5
:10007000A437B107D9F720E0A4E7B0E001C01D9292
:10008000AA37B207E1F70E947C000C940A030C9493
:100090000000CF93C82F8A3019F48DE00E944900E8
:1000A0005D9BFECFCCB980E090E0CF91089583E3D3
:1000B00089B910BC8AB188618AB980B5866880BD6B
:1000C0000895379A86B1866086B93E9A3D9808951C
:1000D00097B18770982B97B9369A349BFECF349A94
:1000E00087B1887F87B984B195B10895BB9A82E6BC
:1000F00083BF8F9A85BD0895CF93DF93CDB7DEB7C9
:10010000A3970FB6F894DEBF0FBECDBF0E94570075
:100110000E9461000E94760080E883BD8CBF80E66B
:1001200090E0909377008093760086E0EEE6F0E032
:10013000DE01539601900D928A95E1F710E01D8E35
:10014000412C512C9E012F5F3F4F3A8F298F398DC3
:100150003E8F4A8D4F8FCE010D969C8F8B8F1E0147
:1001600093E1290E311CEB8DE8A3FC8DF9A38824C3
:1001700083940F2EF8EC6F2E712CF02D7BA26AA2C7
:10018000712E04C0792CAD8E4B2C502E9E012F5F0A
:100190003F4F79010E8D1F8DD12C8D2D6801182FA9
:1001A000812F0E946800F601819391936F011F5F78
:1001B0001630B1F7DE011D96E8A1F9A110E09D010E
:1001C000D7018D919D918335934010F0808201C0BD
:1001D00010828191180FE215F30599F7D901F10109
:1001E00060E08D91882311F08081680F3196A2150F
:1001F000B305B9F7062E000C770B880B990B0E94FC
:100200001102962EA72EB82E092F2AE939E949EDB9
:100210005FE30E949D020E94D9016B017C01292DA0
:100220003A2D4B2D502F672D7D8D842D952D0E94BD
:100230006D0120E030E040E05FE30E949D020E94FB
:10024000D901C60ED71E272D3D8D442D552D692D64
:100250007A2D8B2D902F0E946C0120E030E040E43D
:1002600050E40E949D020E94D9016C0D7D1DEFE0BB
:10027000E69FC001E79F900D11248F3F91053CF44C
:100280008230FFEF9F072CF481E09FEF02C08FEFD9
:1002900090E01123E9F09C0128533F4F2F3F310597
:1002A00019F014F02FEF30E033230CF420E023BDDD
:1002B0002AA13BA1281B390BC9012F3F310519F099
:1002C00014F08FEF90E099230CF480E08CBF5ACFAC
:1002D00030E833BD3CBF56CF5058BB27AA270E94F9
:1002E00084010C9463020E94550238F00E945C0263
:1002F00020F039F49F3F19F426F40C9452020EF4C6
:10030000E095E7FB0C944C02E92F0E94740258F32D
:10031000BA17620773078407950720F079F4A6F5EA
:100320000C9496020EF4E0950B2EBA2FA02D0B0123
:10033000B90190010C01CA01A0011124FF27591B2A
:1003400099F0593F50F4503E68F11A16F040A22F30
:10035000232F342F4427585FF3CF469537952795A1
:10036000A795F0405395C9F77EF41F16BA0B620BA0
:10037000730B840BBAF09150A1F0FF0FBB1F661FE7
:10038000771F881FC2F70EC0BA0F621F731F841F2A
:1003900048F4879577956795B795F7959E3F08F050
:1003A000B0CF9395880F08F09927EE0F9795879512
:1003B00008950E94E0016894B1110C949702089589
:1003C0000E947C0288F09F5798F0B92F9927B75167
:1003D000B0F0E1F0660F771F881F991F1AF0BA95E9
:1003E000C9F714C0B13091F00E949602B1E00895AF
:1003F0000C949602672F782F8827B85F39F0B93FA1
:10040000CCF3869577956795B395D9F73EF490959B
:100410008095709561957F4F8F4F9F4F0895E89419
:1004200009C097FB3EF490958095709561957F4F3C
:100430008F4F9F4F9923A9F0F92F96E9BB279395EA
:10044000F695879577956795B795F111F8CFFAF4FA
:10045000BB0F11F460FF1BC06F5F7F4F8F4F9F4F2B
:1004600016C0882311F096E911C0772321F09EE889
:10047000872F762F05C0662371F096E8862F70E0EF
:1004800060E02AF09A95660F771F881FDAF7880FC9
:100490009695879597F9089597F99F6780E870E09A
:1004A00060E008959FEF80EC089500240A941616EA
:1004B000170618060906089500240A941216130652
:1004C000140605060895092E0394000C11F48823E0
:1004D00052F0BB0F40F4BF2B11F460FF04C06F5FFC
:1004E0007F4F8F4F9F4F089557FD9058440F551FD2
:1004F00059F05F3F71F04795880F97FB991F61F0A6
:100500009F3F79F087950895121613061406551F1C
:10051000F2CF4695F1DF08C0161617061806991F88
:10052000F1CF86957105610508940895E894BB277D
:1005300066277727CB0197F908950E94B0020C94A3
:1005400063020E94550238F00E945C0220F095235D
:1005500011F00C944C020C94520211240C9497024A
:100560000E94740270F3959FC1F3950F50E0551FE0
:10057000629FF001729FBB27F00DB11D639FAA27F8
:10058000F00DB11DAA1F649F6627B00DA11D661F47
:10059000829F2227B00DA11D621F739FB00DA11D68
:1005A000621F839FA00D611D221F749F3327A00D22
:1005B000611D231F849F600D211D822F762F6A2FBE
:1005C00011249F5750409AF0F1F088234AF0EE0F23
:1005D000FF1FBB1F661F771F881F91505040A9F750
:1005E0009E3F510580F00C944C020C9497025F3FA3
:1005F000E4F3983ED4F3869577956795B795F7958C
:10060000E7959F5FC1F7FE2B880F911D9695879503
:0806100097F90895F894FFCF5B
:100618000000000200000000490000000000FDFE8C
:04062800FF010203C9
:00000001FF
