S01400004C696E65466F6C6C6F7765722E737265633E
S11300000C942A000C9447000C9447000C9447006D
S11300100C9447000C9447000C9447000C94470040
S11300200C9447000C9447000C9447000C94470030
S11300300C9447000C9447000C9447000C94470020
S11300400C9447000C9447000C9447000C94470010
S11300500C94470011241FBECFE5D4E0DEBFCDBF12
S113006010E0A0E6B0E0E6EAF1E002C005900D92EF
S1130070AE36B107D9F720E0AEE6B0E001C01D927C
S1130080A437B207E1F70E9481000C94D1000C94CC
S11300900000CF93C82F8A3019F48DE00E944900E4
S11300A05D9BFECFCCB980E090E0CF9108958FEFB7
S11300B081BB12BA0895379A86B1866086B93E9A92
S11300C03D98089597B18770982B97B9369A349BC9
S11300D0FECF349A87B1887F87B984B195B10895EA
S11300E082B38A6082BB82B38A7F82BB0895919A6D
S11300F082B3827F82BB0895939A82B3887F82BB46
S113010008950E945B000E94570080E690E090935F
S113011071008093700080E00E9462008C0181E095
S11301200E9462007C0182E00E946200EC0183E094
S11301300E9462009C0191E049E1E41641E0F4066A
S113014008F490E09923E9F0C93181E0D80710F16F
S113015009311140A0F42931314030F40E9470007B
S1130160DACF0E947C00D7CF80E0C931D14038F08B
S1130170911105C0811103C00E947700CCCF12BA3F
S1130180CACF81E00931114008F480E029313140BF
S113019060F7F5CF0931114090F32931314078F7F8
S10901A0E0CFF894FFCF4C
S11101A60000000200000000490000000000FC
S9030000FC
