S01400004C696E65466F6C6C6F7765722E737265633E
S11300000C942A000C9447000C9447000C9447006D
S11300100C9447000C9447000C9447000C94470040
S11300200C9447000C9447000C9447000C94470030
S11300300C9447000C9447000C9447000C94470020
S11300400C9447000C9447000C9447000C94470010
S11300500C94470011241FBECFE5D4E0DEBFCDBF12
S113006011E0A0E6B0E0ECE5FBE002C005900D92E3
S1130070AC36B107D9F721E0ACE6B1E001C01D927E
S1130080A237B207E1F70E947C000C94AC050C94F3
S11300900000CF93C82F8A3019F48DE00E944900E4
S11300A05D9BFECFCCB980E090E0CF91089583E3CF
S11300B089B910BC8AB188618AB980B5866880BD67
S11300C00895379A86B1866086B93E9A3D98089518
S11300D097B18770982B97B9369A349BFECF349A90
S11300E087B1887F87B984B195B10895BB9A82E6B8
S11300F083BF8F9A85BD0895CF93DF93CDB7DEB7C5
S1130100A0970FB6F894DEBF0FBECDBF0E94570074
S11301100E9461000E94760080E883BD8CBF80E667
S113012090E090936F0180936E0186E0EEE6F0E03C
S1130130DE01539601900D928A95E1F7CE01019666
S11301409A8F898F998D9D8FAA8DAE8F612CFE0118
S11301503D96FC8FEB8F7E01F3E1EF0EF11C2B8DAE
S11301602F8F4C8D48A3772473940F2EF4EBAF2E6E
S1130170B12CF02D0F2EFFEDCF2EF0E0DF2EF02D61
S11301800F2EF4E32F2EF1E03F2EF02D8E010F5FA2
S11301901F4F8D8C9E8C2801162D812F0E94680084
S11301A0D4018D939D934D011F5F1630B1F78201E9
S11301B0DE011D96EF8DF8A1562C9D01D8018D917D
S11301C09D918335934010F0708201C0108281911B
S11301D0580EEE15FF0599F7D901F701462C8D91BC
S11301E0882311F08081480E3196EA16FB06B9F790
S11301F0642D042C000C770B880B990B0E94B8011A
S11302002AE939E949ED5FE30E941C020E9480015A
S11302102FE0269F8001279F100D11240F3F110509
S11302203CF402308FEF18072CF401E01FEF02C0FA
S11302300FEF10E04501801A910A0C541F4F0F3F35
S1130240110519F014F00FEF10E09FEF89169104D7
S113025021F01CF088248A94912C112314F400E0DA
S113026010E0992014F4812C912C552019F003BD31
S11302708CBE03C080E883BD8CBF84E790E00E94FD
S1130280C7028C858F938B858F938A858F938985FD
S11302908F9388858F938F818F938E818F938D8198
S11302A08F938C818F938B818F938A818F93898194
S11302B08F93DF92CF920E94B102842D042C000C04
S11302C0990B9F934F923F922F920E94B1029F925B
S11302D08F921F930F93A0E4B1E0BF93AF930E945A
S11302E0B102FFEF24E34CE0F15020404040E1F73D
S11302F000C000000FB6F894DEBF0FBECDBF46CFDE
S11303000E9487016894B1110C94160208950E940A
S1130310FB0188F09F5798F0B92F9927B751B0F097
S1130320E1F0660F771F881F991F1AF0BA95C9F775
S113033014C0B13091F00E941502B1E008950C94FC
S11303401502672F782F8827B85F39F0B93FCCF3AF
S1130350869577956795B395D9F73EF490958095F2
S1130360709561957F4F8F4F9F4F0895E89409C012
S113037097FB3EF490958095709561957F4F8F4FD4
S11303809F4F9923A9F0F92F96E9BB279395F695EA
S1130390879577956795B795F111F8CFFAF4BB0F68
S11303A011F460FF1BC06F5F7F4F8F4F9F4F16C0CC
S11303B0882311F096E911C0772321F09EE8872F56
S11303C0762F05C0662371F096E8862F70E060E012
S11303D02AF09A95660F771F881FDAF7880F96958B
S11303E0879597F9089557FD9058440F551F59F074
S11303F05F3F71F04795880F97FB991F61F09F3F0E
S113040079F087950895121613061406551FF2CF36
S11304104695F1DF08C0161617061806991FF1CF86
S113042086957105610508940895E894BB276627AD
S11304307727CB0197F908950E942F020C94A0020C
S11304400E94920238F00E94990220F0952311F044
S11304500C9489020C948F0211240C9416020E94AD
S1130460F30170F3959FC1F3950F50E0551F629F00
S1130470F001729FBB27F00DB11D639FAA27F00DF9
S1130480B11DAA1F649F6627B00DA11D661F829F20
S11304902227B00DA11D621F739FB00DA11D621F05
S11304A0839FA00D611D221F749F3327A00D611D22
S11304B0231F849F600D211D822F762F6A2F112404
S11304C09F5750409AF0F1F088234AF0EE0FFF1F37
S11304D0BB1F661F771F881F91505040A9F79E3F8E
S11304E0510580F00C9489020C9416025F3FE4F3EA
S11304F0983ED4F3869577956795B795F795E795E4
S11305009F5FC1F7FE2B880F911D9695879597F9EC
S1130510089597F99F6780E870E060E008959FEF81
S113052080EC089500240A94161617061806090686
S1130530089500240A941216130614060506089555
S1130540092E0394000C11F4882352F0BB0F40F4DD
S1130550BF2B11F460FF04C06F5F7F4F8F4F9F4F1D
S11305600895A0E0B0E0E7EBF2E00C948505AE015D
S11305704B5F5F4FFA0161917191AF0180916E0100
S113058090916F010E94F702E2E00C94A1050F9391
S11305901F93CF93DF93E0916E01F0916F0123815C
S11305A021FF1BC08C01D0E0C0E0F80181918F01D4
S11305B060916E0170916F01DB011896ED91FC91D1
S11305C01997882331F00995892B79F3DFEFCFEF61
S11305D0ECCF8AE00995892B19F08FEF9FEF02C0C9
S11305E08D2F9C2FDF91CF911F910F910895ACE037
S11305F0B0E0EDEFF2E00C9475057C016B018A012B
S1130600FC0117821682838181FFBDC1CE01019650
S11306104C01F7019381F60193FD859193FF81913C
S11306206F01882309F4ABC1853239F493FD8591B8
S113063093FF81916F01853229F4B70190E00E9404
S1130640DF04E7CF512C312C20E02032A0F48B3290
S113065069F030F4803259F0833269F420612CC09F
S11306608D3239F0803339F4216026C02260246051
S113067023C0286021C027FD27C030ED380F3A3051
S113068078F426FF06C0FAE05F9E300D1124532E45
S113069013C08AE0389E300D1124332E20620CC022
S11306A08E3221F426FD6BC1206406C08C3611F411
S11306B0206802C0883641F4F60193FD859193FFCA
S11306C081916F018111C1CF982F9F7D95549330F3
S11306D028F40C5F1F4FFFE3F9830DC0833631F01C
S11306E0833771F0833509F05BC022C0F801808143
S11306F089830E5F1F4F44244394512C540115C029
S11307003801F2E06F0E711CF801A080B18026FF61
S113071003C0652D70E002C06FEF7FEFC5012C8729
S11307200E94D4042C0183012C852F77222E17C01C
S11307303801F2E06F0E711CF801A080B18026FF31
S113074003C0652D70E002C06FEF7FEFC5012C87F9
S11307500E94C9042C012C852068222E830123FCCD
S11307601BC0832D90E048165906B0F4B70180E20F
S113077090E00E94DF043A94F4CFF50127FC8591C0
S113078027FE81915F01B70190E00E94DF043110E0
S11307903A94F1E04F1A51084114510471F7E5C03D
S11307A0843611F0893639F5F80127FF07C06081D6
S11307B07181828193810C5F1F4F08C060817181B8
S11307C0072E000C880B990B0E5F1F4F2F76722E8D
S11307D097FF09C090958095709561957F4F8F4FD5
S11307E09F4F2068722E2AE030E0A4010E94170572
S11307F0A82EA81844C0853729F42F7EB22E2AE0EB
S113080030E025C0F22FF97FBF2E8F36C1F018F4E7
S1130810883579F0B4C0803719F0883721F0AFC03B
S11308202F2F2061B22EB4FE0DC08B2D8460B82E04
S113083009C024FF0AC09F2F9660B92E06C028E085
S113084030E005C020E130E002C020E132E0F801F0
S1130850B7FE07C060817181828193810C5F1F4F55
S113086006C06081718180E090E00E5F1F4FA4019B
S11308700E941705A82EA818FB2DFF777F2E76FE61
S11308800BC0372D3E7FA51450F474FE0AC072FCD1
S113089008C0372D3E7E05C0BA2C372D03C0BA2CB4
S11308A001C0B52C34FF0DC0FE01EA0DF11D80819D
S11308B0803311F4397E09C032FF06C0B394B39477
S11308C004C0832F867809F0B39433FD13C030FF3E
S11308D006C05A2CB31418F4530C5B18B32CB3147D
S11308E068F4B70180E290E03C870E94DF04B3948F
S11308F03C85F5CFB31410F43B1801C0312C34FF00
S113090012C0B70180E390E03C870E94DF043C857D
S113091032FF17C031FD03C088E790E002C088E5CC
S113092090E0B7010CC0832F867859F031FF02C0E4
S11309308BE201C080E237FD8DE2B70190E00E94B6
S1130940DF04A51438F4B70180E390E00E94DF04CB
S11309505A94F7CFAA94F401EA0DF11D8081B701EE
S113096090E00E94DF04A110F5CF332009F451CEAA
S1130970B70180E290E00E94DF043A94F6CFF701D9
S11309808681978102C08FEF9FEF2C96E2E10C9451
S11309909105FC010590615070400110D8F78095D5
S11309A090958E0F9F1F0895FC0161507040019037
S11309B00110D8F7809590958E0F9F1F08950F937F
S11309C01F93CF93DF93FB01238121FD03C08FEF9E
S11309D09FEF28C022FF16C04681578124813581AC
S11309E04217530744F4A081B1819D012F5F3F4F0B
S11309F0318320838C93268137812F5F3F4F378348
S1130A00268310C0EB01092F182F0084F185E02DF7
S1130A100995892BE1F68E819F8101969F838E83B0
S1130A20812F902FDF91CF911F910F910895FA019B
S1130A30AA27283051F1203181F1E8946F936E7F19
S1130A406E5F7F4F8F4F9F4FAF4FB1E03ED0B4E00A
S1130A503CD0670F781F891F9A1FA11D680F791F4B
S1130A608A1F911DA11D6A0F711D811D911DA11D5C
S1130A7020D009F468943F912AE0269F112430196C
S1130A80305D3193DEF6CF010895462F4770405D07
S1130A904193B3E00FD0C9F7F6CF462F4F70405DB6
S1130AA04A3318F0495D31FD4052419302D0A9F711
S1130AB0EACFB4E0A6959795879577956795BA950B
S1130AC0C9F700976105710508959B01AC010A2ED1
S1130AD006945795479537952795BA95C9F7620FA8
S1130AE0731F841F951FA01D08952F923F924F924C
S1130AF05F926F927F928F929F92AF92BF92CF92AA
S1130B00DF92EF92FF920F931F93CF93DF93CDB7B2
S1130B10DEB7CA1BDB0B0FB6F894DEBF0FBECDBF2A
S1130B2009942A88398848885F846E847D848C84FB
S1130B309B84AA84B984C884DF80EE80FD800C8104
S1130B401B81AA81B981CE0FD11D0FB6F894DEBFE7
S10F0B500FBECDBFED010895F894FFCF57
S1130B5C0000000200000000490000000000FDFE3F
S1130B6CFF0102032D2D2D2D2D2D2D2D2D2D2D2D54
S1130B7C2D2D2D2D2D2D2D2D2D2D2D2D2D2D2D2D95
S1130B8C2D2D2D2D2D2D2D2D2D2D2D2D2D2D2D2D85
S1130B9C2D2D2D2D2D2D2D2D2D2D2D2D2D2D2D2D75
S1130BAC2D2D2D2D2D2D2D2D2D2D2D2D2D2D2D2D65
S1130BBC2D2D2D2D2D2D2D2D2D2D2D2D2D2D2D2D55
S1130BCC2D2D2D2D2D2D2D2D2D2D2D2D2D2D00534C
S1130BDC656E736F722030203A2025640953656E5C
S1130BEC736F722031203A2025640953656E736F3C
S1130BFC722032203A2025640953656E736F72207B
S1130C0C33203A2025640953656E736F72203420A7
S1130C1C3A2025640953656E736F722035203A208F
S1130C2C25640A004572726F72203A2025640A000A
S1130C3C50574D204C656674204D6F746F72203A7A
S1130C4C202564092050574D205269676874204D43
S10F0C5C6F746F72203A2025640A0000B7
S9030000FC
